{
  "_format": "hh-sol-artifact-1",
  "contractName": "FileStorage",
  "sourceName": "contracts/FIleStorage.sol",
  "abi": [
    {
      "anonymous": false,
      "inputs": [
        {
          "indexed": false,
          "internalType": "string",
          "name": "regNo",
          "type": "string"
        },
        {
          "indexed": false,
          "internalType": "string",
          "name": "userEmail",
          "type": "string"
        },
        {
          "indexed": false,
          "internalType": "string",
          "name": "fileHash",
          "type": "string"
        }
      ],
      "name": "FileStored",
      "type": "event"
    },
    {
      "anonymous": false,
      "inputs": [
        {
          "indexed": false,
          "internalType": "string",
          "name": "userEmail",
          "type": "string"
        }
      ],
      "name": "NewUserCreated",
      "type": "event"
    },
    {
      "inputs": [],
      "name": "admin",
      "outputs": [
        {
          "internalType": "address",
          "name": "",
          "type": "address"
        }
      ],
      "stateMutability": "view",
      "type": "function"
    },
    {
      "inputs": [
        {
          "internalType": "string",
          "name": "",
          "type": "string"
        },
        {
          "internalType": "uint256",
          "name": "",
          "type": "uint256"
        }
      ],
      "name": "filesByUser",
      "outputs": [
        {
          "internalType": "string",
          "name": "regNo",
          "type": "string"
        },
        {
          "internalType": "string",
          "name": "userEmail",
          "type": "string"
        },
        {
          "internalType": "string",
          "name": "fileHash",
          "type": "string"
        },
        {
          "internalType": "bool",
          "name": "exists",
          "type": "bool"
        }
      ],
      "stateMutability": "view",
      "type": "function"
    },
    {
      "inputs": [
        {
          "internalType": "string",
          "name": "regNo",
          "type": "string"
        },
        {
          "internalType": "string",
          "name": "userEmail",
          "type": "string"
        }
      ],
      "name": "getFile",
      "outputs": [
        {
          "internalType": "string",
          "name": "",
          "type": "string"
        },
        {
          "internalType": "string",
          "name": "",
          "type": "string"
        },
        {
          "internalType": "string",
          "name": "",
          "type": "string"
        }
      ],
      "stateMutability": "view",
      "type": "function"
    },
    {
      "inputs": [
        {
          "internalType": "string",
          "name": "userEmail",
          "type": "string"
        }
      ],
      "name": "getFilesByUser",
      "outputs": [
        {
          "components": [
            {
              "internalType": "string",
              "name": "regNo",
              "type": "string"
            },
            {
              "internalType": "string",
              "name": "userEmail",
              "type": "string"
            },
            {
              "internalType": "string",
              "name": "fileHash",
              "type": "string"
            },
            {
              "internalType": "bool",
              "name": "exists",
              "type": "bool"
            }
          ],
          "internalType": "struct FileStorage.File[]",
          "name": "",
          "type": "tuple[]"
        }
      ],
      "stateMutability": "view",
      "type": "function"
    },
    {
      "inputs": [
        {
          "internalType": "string",
          "name": "regNo",
          "type": "string"
        },
        {
          "internalType": "string",
          "name": "userEmail",
          "type": "string"
        },
        {
          "internalType": "string",
          "name": "fileHash",
          "type": "string"
        }
      ],
      "name": "storeFile",
      "outputs": [],
      "stateMutability": "nonpayable",
      "type": "function"
    },
    {
      "inputs": [
        {
          "internalType": "string",
          "name": "userEmail",
          "type": "string"
        }
      ],
      "name": "userExists",
      "outputs": [
        {
          "internalType": "bool",
          "name": "",
          "type": "bool"
        }
      ],
      "stateMutability": "view",
      "type": "function"
    }
  ],
  "bytecode": "0x608060405234801561001057600080fd5b506113d6806100206000396000f3fe608060405234801561001057600080fd5b50600436106100625760003560e01c80632144cc76146100675780637dd77d2b1461009357806391548ace146100a8578063d4f63225146100ca578063f851a440146100ea578063fddc968e14610115575b600080fd5b61007a610075366004610e72565b610138565b60405161008a9493929190610f07565b60405180910390f35b6100a66100a1366004610f54565b61032f565b005b6100bb6100b6366004610fdc565b61058c565b60405161008a93929190611040565b6100dd6100d8366004611083565b610940565b60405161008a91906110c0565b6000546100fd906001600160a01b031681565b6040516001600160a01b03909116815260200161008a565b610128610123366004611083565b610b85565b604051901515815260200161008a565b8151602081840181018051600182529282019185019190912091905280548290811061016357600080fd5b9060005260206000209060040201600091509150508060000180546101879061116e565b80601f01602080910402602001604051908101604052809291908181526020018280546101b39061116e565b80156102005780601f106101d557610100808354040283529160200191610200565b820191906000526020600020905b8154815290600101906020018083116101e357829003601f168201915b5050505050908060010180546102159061116e565b80601f01602080910402602001604051908101604052809291908181526020018280546102419061116e565b801561028e5780601f106102635761010080835404028352916020019161028e565b820191906000526020600020905b81548152906001019060200180831161027157829003601f168201915b5050505050908060020180546102a39061116e565b80601f01602080910402602001604051908101604052809291908181526020018280546102cf9061116e565b801561031c5780601f106102f15761010080835404028352916020019161031c565b820191906000526020600020905b8154815290600101906020018083116102ff57829003601f168201915b5050506003909301549192505060ff1684565b600060018360405161034191906111a8565b908152602001604051809103902090506000805b8254811015610455578560405160200161036f91906111a8565b60405160208183030381529060405280519060200120838281548110610397576103976111c4565b90600052602060002090600402016000016040516020016103b891906111da565b604051602081830303815290604052805190602001200361044357838382815481106103e6576103e66111c4565b90600052602060002090600402016002019081610403919061129f565b506001838281548110610418576104186111c4565b60009182526020909120600490910201600301805460ff191691151591909117905560019150610455565b8061044d8161135f565b915050610355565b508061054a576000604051806080016040528087815260200186815260200185815260200160011515815250905060018560405161049391906111a8565b9081526040516020918190038201902080546001810182556000918252919020825183926004029091019081906104ca908261129f565b50602082015160018201906104df908261129f565b50604082015160028201906104f4908261129f565b50606091909101516003909101805460ff19169115159190911790556040517f0659804f1bdde4d23249ac7b7f5cd0b8dbea665387f0f0556fee1d7c05c0946190610540908790611386565b60405180910390a1505b7f693923525d6cd5a186e079eb564e94b619377721de674b8aaa46acb89c1280a185858560405161057d93929190611040565b60405180910390a15050505050565b606080606060006001856040516105a391906111a8565b9081526020016040518091039020805480602002602001604051908101604052809291908181526020016000905b828210156107cb57838290600052602060002090600402016040518060800160405290816000820180546106049061116e565b80601f01602080910402602001604051908101604052809291908181526020018280546106309061116e565b801561067d5780601f106106525761010080835404028352916020019161067d565b820191906000526020600020905b81548152906001019060200180831161066057829003601f168201915b505050505081526020016001820180546106969061116e565b80601f01602080910402602001604051908101604052809291908181526020018280546106c29061116e565b801561070f5780601f106106e45761010080835404028352916020019161070f565b820191906000526020600020905b8154815290600101906020018083116106f257829003601f168201915b505050505081526020016002820180546107289061116e565b80601f01602080910402602001604051908101604052809291908181526020018280546107549061116e565b80156107a15780601f10610776576101008083540402835291602001916107a1565b820191906000526020600020905b81548152906001019060200180831161078457829003601f168201915b50505091835250506003919091015460ff16151560209182015290825260019290920191016105d1565b50505050905060005b81518110156108c657866040516020016107ee91906111a8565b60405160208183030381529060405280519060200120828281518110610816576108166111c4565b60200260200101516000015160405160200161083291906111a8565b60405160208183030381529060405280519060200120036108b45781818151811061085f5761085f6111c4565b60200260200101516000015182828151811061087d5761087d6111c4565b60200260200101516020015183838151811061089b5761089b6111c4565b6020026020010151604001519450945094505050610939565b806108be8161135f565b9150506107d4565b5060405162461bcd60e51b815260206004820152603960248201527f46696c65206e6f7420666f756e6420666f722074686520676976656e2075736560448201527f7220616e6420726567697374726174696f6e206e756d62657200000000000000606482015260840160405180910390fd5b9250925092565b606060018260405161095291906111a8565b9081526020016040518091039020805480602002602001604051908101604052809291908181526020016000905b82821015610b7a57838290600052602060002090600402016040518060800160405290816000820180546109b39061116e565b80601f01602080910402602001604051908101604052809291908181526020018280546109df9061116e565b8015610a2c5780601f10610a0157610100808354040283529160200191610a2c565b820191906000526020600020905b815481529060010190602001808311610a0f57829003601f168201915b50505050508152602001600182018054610a459061116e565b80601f0160208091040260200160405190810160405280929190818152602001828054610a719061116e565b8015610abe5780601f10610a9357610100808354040283529160200191610abe565b820191906000526020600020905b815481529060010190602001808311610aa157829003601f168201915b50505050508152602001600282018054610ad79061116e565b80601f0160208091040260200160405190810160405280929190818152602001828054610b039061116e565b8015610b505780601f10610b2557610100808354040283529160200191610b50565b820191906000526020600020905b815481529060010190602001808311610b3357829003601f168201915b50505091835250506003919091015460ff1615156020918201529082526001929092019101610980565b505050509050919050565b600080600183604051610b9891906111a8565b9081526020016040518091039020805480602002602001604051908101604052809291908181526020016000905b82821015610dc05783829060005260206000209060040201604051806080016040529081600082018054610bf99061116e565b80601f0160208091040260200160405190810160405280929190818152602001828054610c259061116e565b8015610c725780601f10610c4757610100808354040283529160200191610c72565b820191906000526020600020905b815481529060010190602001808311610c5557829003601f168201915b50505050508152602001600182018054610c8b9061116e565b80601f0160208091040260200160405190810160405280929190818152602001828054610cb79061116e565b8015610d045780601f10610cd957610100808354040283529160200191610d04565b820191906000526020600020905b815481529060010190602001808311610ce757829003601f168201915b50505050508152602001600282018054610d1d9061116e565b80601f0160208091040260200160405190810160405280929190818152602001828054610d499061116e565b8015610d965780601f10610d6b57610100808354040283529160200191610d96565b820191906000526020600020905b815481529060010190602001808311610d7957829003601f168201915b50505091835250506003919091015460ff1615156020918201529082526001929092019101610bc6565b50509151151595945050505050565b634e487b7160e01b600052604160045260246000fd5b600082601f830112610df657600080fd5b813567ffffffffffffffff80821115610e1157610e11610dcf565b604051601f8301601f19908116603f01168101908282118183101715610e3957610e39610dcf565b81604052838152866020858801011115610e5257600080fd5b836020870160208301376000602085830101528094505050505092915050565b60008060408385031215610e8557600080fd5b823567ffffffffffffffff811115610e9c57600080fd5b610ea885828601610de5565b95602094909401359450505050565b60005b83811015610ed2578181015183820152602001610eba565b50506000910152565b60008151808452610ef3816020860160208601610eb7565b601f01601f19169290920160200192915050565b608081526000610f1a6080830187610edb565b8281036020840152610f2c8187610edb565b90508281036040840152610f408186610edb565b915050821515606083015295945050505050565b600080600060608486031215610f6957600080fd5b833567ffffffffffffffff80821115610f8157600080fd5b610f8d87838801610de5565b94506020860135915080821115610fa357600080fd5b610faf87838801610de5565b93506040860135915080821115610fc557600080fd5b50610fd286828701610de5565b9150509250925092565b60008060408385031215610fef57600080fd5b823567ffffffffffffffff8082111561100757600080fd5b61101386838701610de5565b9350602085013591508082111561102957600080fd5b5061103685828601610de5565b9150509250929050565b6060815260006110536060830186610edb565b82810360208401526110658186610edb565b905082810360408401526110798185610edb565b9695505050505050565b60006020828403121561109557600080fd5b813567ffffffffffffffff8111156110ac57600080fd5b6110b884828501610de5565b949350505050565b60006020808301818452808551808352604092508286019150828160051b87010184880160005b8381101561116057603f1989840301855281516080815181865261110d82870182610edb565b915050888201518582038a8701526111258282610edb565b915050878201518582038987015261113d8282610edb565b6060938401511515969093019590955250948701949250908601906001016110e7565b509098975050505050505050565b600181811c9082168061118257607f821691505b6020821081036111a257634e487b7160e01b600052602260045260246000fd5b50919050565b600082516111ba818460208701610eb7565b9190910192915050565b634e487b7160e01b600052603260045260246000fd5b60008083546111e88161116e565b60018281168015611200576001811461121557611244565b60ff1984168752821515830287019450611244565b8760005260208060002060005b8581101561123b5781548a820152908401908201611222565b50505082870194505b50929695505050505050565b601f82111561129a57600081815260208120601f850160051c810160208610156112775750805b601f850160051c820191505b8181101561129657828155600101611283565b5050505b505050565b815167ffffffffffffffff8111156112b9576112b9610dcf565b6112cd816112c7845461116e565b84611250565b602080601f83116001811461130257600084156112ea5750858301515b600019600386901b1c1916600185901b178555611296565b600085815260208120601f198616915b8281101561133157888601518255948401946001909101908401611312565b508582101561134f5787850151600019600388901b60f8161c191681555b5050505050600190811b01905550565b60006001820161137f57634e487b7160e01b600052601160045260246000fd5b5060010190565b6020815260006113996020830184610edb565b939250505056fea2646970667358221220eea9107a8813b973630e4074a2ec1a2612969333da6622a056715578e4f78e6f64736f6c63430008110033",
  "linkReferences": {},
  "deployedLinkReferences": {}
}